{
  "_format": "hh-sol-artifact-1",
  "contractName": "Todo",
  "sourceName": "contracts/Todo.sol",
  "abi": [
    {
      "anonymous": false,
      "inputs": [
        {
          "indexed": false,
          "internalType": "address",
          "name": "recipient",
          "type": "address"
        },
        {
          "indexed": false,
          "internalType": "uint256",
          "name": "taskID",
          "type": "uint256"
        }
      ],
      "name": "AddTask",
      "type": "event"
    },
    {
      "anonymous": false,
      "inputs": [
        {
          "indexed": false,
          "internalType": "uint256",
          "name": "taskID",
          "type": "uint256"
        },
        {
          "indexed": false,
          "internalType": "bool",
          "name": "isDeleted",
          "type": "bool"
        }
      ],
      "name": "DeleteTask",
      "type": "event"
    },
    {
      "inputs": [
        {
          "internalType": "string",
          "name": "taskText",
          "type": "string"
        },
        {
          "internalType": "bool",
          "name": "isDeleted",
          "type": "bool"
        }
      ],
      "name": "addTask",
      "outputs": [],
      "stateMutability": "nonpayable",
      "type": "function"
    },
    {
      "inputs": [
        {
          "internalType": "uint256",
          "name": "taskId",
          "type": "uint256"
        },
        {
          "internalType": "bool",
          "name": "isDeleted",
          "type": "bool"
        }
      ],
      "name": "deleteTask",
      "outputs": [],
      "stateMutability": "nonpayable",
      "type": "function"
    },
    {
      "inputs": [],
      "name": "getMyTask",
      "outputs": [
        {
          "components": [
            {
              "internalType": "uint256",
              "name": "id",
              "type": "uint256"
            },
            {
              "internalType": "string",
              "name": "taskText",
              "type": "string"
            },
            {
              "internalType": "bool",
              "name": "isDeleted",
              "type": "bool"
            }
          ],
          "internalType": "struct Todo.Task[]",
          "name": "",
          "type": "tuple[]"
        }
      ],
      "stateMutability": "view",
      "type": "function"
    }
  ],
  "bytecode": "0x608060405234801561001057600080fd5b50610e5a806100206000396000f3fe608060405234801561001057600080fd5b50600436106100415760003560e01c806320df458114610046578063aaba290714610062578063e08e86b81461007e575b600080fd5b610060600480360381019061005b919061074c565b61009c565b005b61007c600480360381019061007791906107de565b6101bf565b005b6100866102a1565b60405161009391906109cd565b60405180910390f35b60008080549050905060006040518060600160405280838152602001858152602001841515815250908060018154018082558091505060019003906000526020600020906003020160009091909190915060008201518160000155602082015181600101908161010c9190610bfb565b5060408201518160020160006101000a81548160ff0219169083151502179055505050336001600083815260200190815260200160002060006101000a81548173ffffffffffffffffffffffffffffffffffffffff021916908373ffffffffffffffffffffffffffffffffffffffff1602179055507f1f54e1ba1832d428fbd7e7792beaf62b1fc5a382c207ffd614209c1413e94fda33826040516101b2929190610d1d565b60405180910390a1505050565b3373ffffffffffffffffffffffffffffffffffffffff166001600084815260200190815260200160002060009054906101000a900473ffffffffffffffffffffffffffffffffffffffff1673ffffffffffffffffffffffffffffffffffffffff160361029d5760016000838154811061023b5761023a610d46565b5b906000526020600020906003020160020160006101000a81548160ff0219169083151502179055507ff88a35c3d2016c409a46570b994a17b408dbc83c14a03f521512d50b85386d068282604051610294929190610d84565b60405180910390a15b5050565b60606000808054905067ffffffffffffffff8111156102c3576102c26105e9565b5b6040519080825280602002602001820160405280156102fc57816020015b6102e9610597565b8152602001906001900390816102e15790505b5090506000805b6000805490508110156104dd573373ffffffffffffffffffffffffffffffffffffffff166001600083815260200190815260200160002060009054906101000a900473ffffffffffffffffffffffffffffffffffffffff1673ffffffffffffffffffffffffffffffffffffffff161480156103b45750600015156000828154811061039157610390610d46565b5b906000526020600020906003020160020160009054906101000a900460ff161515145b156104ca57600081815481106103cd576103cc610d46565b5b90600052602060002090600302016040518060600160405290816000820154815260200160018201805461040090610a1e565b80601f016020809104026020016040519081016040528092919081815260200182805461042c90610a1e565b80156104795780601f1061044e57610100808354040283529160200191610479565b820191906000526020600020905b81548152906001019060200180831161045c57829003601f168201915b505050505081526020016002820160009054906101000a900460ff1615151515815250508383815181106104b0576104af610d46565b5b602002602001018190525081806104c690610ddc565b9250505b80806104d590610ddc565b915050610303565b5060008167ffffffffffffffff8111156104fa576104f96105e9565b5b60405190808252806020026020018201604052801561053357816020015b610520610597565b8152602001906001900390816105185790505b50905060005b8281101561058d5783818151811061055457610553610d46565b5b602002602001015182828151811061056f5761056e610d46565b5b6020026020010181905250808061058590610ddc565b915050610539565b5080935050505090565b604051806060016040528060008152602001606081526020016000151581525090565b6000604051905090565b600080fd5b600080fd5b600080fd5b600080fd5b6000601f19601f8301169050919050565b7f4e487b7100000000000000000000000000000000000000000000000000000000600052604160045260246000fd5b610621826105d8565b810181811067ffffffffffffffff821117156106405761063f6105e9565b5b80604052505050565b60006106536105ba565b905061065f8282610618565b919050565b600067ffffffffffffffff82111561067f5761067e6105e9565b5b610688826105d8565b9050602081019050919050565b82818337600083830152505050565b60006106b76106b284610664565b610649565b9050828152602081018484840111156106d3576106d26105d3565b5b6106de848285610695565b509392505050565b600082601f8301126106fb576106fa6105ce565b5b813561070b8482602086016106a4565b91505092915050565b60008115159050919050565b61072981610714565b811461073457600080fd5b50565b60008135905061074681610720565b92915050565b60008060408385031215610763576107626105c4565b5b600083013567ffffffffffffffff811115610781576107806105c9565b5b61078d858286016106e6565b925050602061079e85828601610737565b9150509250929050565b6000819050919050565b6107bb816107a8565b81146107c657600080fd5b50565b6000813590506107d8816107b2565b92915050565b600080604083850312156107f5576107f46105c4565b5b6000610803858286016107c9565b925050602061081485828601610737565b9150509250929050565b600081519050919050565b600082825260208201905092915050565b6000819050602082019050919050565b610853816107a8565b82525050565b600081519050919050565b600082825260208201905092915050565b60005b83811015610893578082015181840152602081019050610878565b60008484015250505050565b60006108aa82610859565b6108b48185610864565b93506108c4818560208601610875565b6108cd816105d8565b840191505092915050565b6108e181610714565b82525050565b60006060830160008301516108ff600086018261084a565b5060208301518482036020860152610917828261089f565b915050604083015161092c60408601826108d8565b508091505092915050565b600061094383836108e7565b905092915050565b6000602082019050919050565b60006109638261081e565b61096d8185610829565b93508360208202850161097f8561083a565b8060005b858110156109bb578484038952815161099c8582610937565b94506109a78361094b565b925060208a01995050600181019050610983565b50829750879550505050505092915050565b600060208201905081810360008301526109e78184610958565b905092915050565b7f4e487b7100000000000000000000000000000000000000000000000000000000600052602260045260246000fd5b60006002820490506001821680610a3657607f821691505b602082108103610a4957610a486109ef565b5b50919050565b60008190508160005260206000209050919050565b60006020601f8301049050919050565b600082821b905092915050565b600060088302610ab17fffffffffffffffffffffffffffffffffffffffffffffffffffffffffffffffff82610a74565b610abb8683610a74565b95508019841693508086168417925050509392505050565b6000819050919050565b6000610af8610af3610aee846107a8565b610ad3565b6107a8565b9050919050565b6000819050919050565b610b1283610add565b610b26610b1e82610aff565b848454610a81565b825550505050565b600090565b610b3b610b2e565b610b46818484610b09565b505050565b5b81811015610b6a57610b5f600082610b33565b600181019050610b4c565b5050565b601f821115610baf57610b8081610a4f565b610b8984610a64565b81016020851015610b98578190505b610bac610ba485610a64565b830182610b4b565b50505b505050565b600082821c905092915050565b6000610bd260001984600802610bb4565b1980831691505092915050565b6000610beb8383610bc1565b9150826002028217905092915050565b610c0482610859565b67ffffffffffffffff811115610c1d57610c1c6105e9565b5b610c278254610a1e565b610c32828285610b6e565b600060209050601f831160018114610c655760008415610c53578287015190505b610c5d8582610bdf565b865550610cc5565b601f198416610c7386610a4f565b60005b82811015610c9b57848901518255600182019150602085019450602081019050610c76565b86831015610cb85784890151610cb4601f891682610bc1565b8355505b6001600288020188555050505b505050505050565b600073ffffffffffffffffffffffffffffffffffffffff82169050919050565b6000610cf882610ccd565b9050919050565b610d0881610ced565b82525050565b610d17816107a8565b82525050565b6000604082019050610d326000830185610cff565b610d3f6020830184610d0e565b9392505050565b7f4e487b7100000000000000000000000000000000000000000000000000000000600052603260045260246000fd5b610d7e81610714565b82525050565b6000604082019050610d996000830185610d0e565b610da66020830184610d75565b9392505050565b7f4e487b7100000000000000000000000000000000000000000000000000000000600052601160045260246000fd5b6000610de7826107a8565b91507fffffffffffffffffffffffffffffffffffffffffffffffffffffffffffffffff8203610e1957610e18610dad565b5b60018201905091905056fea26469706673582212208eb779ccc57a60ffd2dbb9dfeeadae372c11df1944aad6b3b3999c884f3936e364736f6c63430008110033",
  "linkReferences": {},
  "deployedLinkReferences": {}
}